:100000000C942A000C9434000C9434000C943400AA
:100010000C9434000C9434000C9434000C94340090
:100020000C9434000C9434000C9434000C94340080
:100030000C9434000C9434000C9434000C94340070
:100040000C9434000C9434000C9434000C94340060
:100050000C94340011241FBECFE5D8E0DEBFCDBF25
:100060000E9453000C945D000C9400001BB888E1C2
:100070008AB986E880BD83E389B910BC08955F9B87
:10008000FECF519B03C020E031E002C020E030E011
:100090009BB19C7129F48CB1A901482BCA01089528
:1000A00080E090E008958FEF87BB0E9436000E94A9
:0E00B0003F009595879588BBFACFF894FFCF57
:00000001FF
