:100000000C942A000C943F000C943F000C943F0089
:100010000C943F000C943F000C943F000C943F0064
:100020000C943F000C943F000C943F000C943F0054
:100030000C943F000C943F000C943F000C943F0044
:100040000C943F000C943F000C943F000C943F0034
:100050000C943F0011241FBECFE5D8E0DEBFCDBF1A
:1000600010E0A0E6B0E0EEE8F0E002C005900D92EE
:10007000A036B107D9F70E9441000C9445000C94BA
:0E008000000014BA81E085BBFFCFF894FFCFDB
:00000001FF
