:100000000C942A000C9434000C9434000C943400AA
:100010000C9434000C9434000C9434000C94340090
:100020000C9434000C9434000C9434000C94340080
:100030000C9434000C9434000C9434000C94340070
:100040000C9434000C9434000C9434000C94340060
:100050000C94340011241FBECFE5D8E0DEBFCDBF25
:100060000E944C000C9453000C9400001BB88CE1CF
:100070008AB986E880BD83E389B910BC08955D9B89
:10008000FECF90FF04C02AB121602AB903C02AB173
:100090002E7F2AB98CB908950E9436008FEF90E028
:0A00A0000E943F00FBCFF894FFCF51
:00000001FF
