S01700004763634170706C69636174696F6E332E7372656359
S11300000C942A000C9434000C9434000C943400A6
S11300100C9434000C9434000C9434000C9434008C
S11300200C9434000C9434000C9434000C9434007C
S11300300C9434000C9434000C9434000C9434006C
S11300400C9434000C9434000C9434000C9434005C
S11300500C94340011241FBECFE5D8E0DEBFCDBF21
S11300600E943F000C9446000C94000080E487BB7F
S11300708DB90895779BFECF8FB182BB08958FEF22
S113008081BB0E9436000E943A00FDCFF894FFCF56
S9030000FC
